{
  "_format": "hh-sol-artifact-1",
  "contractName": "LoanRequest",
  "sourceName": "contracts/ChainWaveLoans.sol",
  "abi": [
    {
      "inputs": [
        {
          "internalType": "string",
          "name": "_title",
          "type": "string"
        },
        {
          "internalType": "uint256",
          "name": "_target",
          "type": "uint256"
        },
        {
          "internalType": "uint256",
          "name": "_interest",
          "type": "uint256"
        },
        {
          "internalType": "string",
          "name": "_description",
          "type": "string"
        },
        {
          "internalType": "string[]",
          "name": "_images",
          "type": "string[]"
        },
        {
          "internalType": "uint256",
          "name": "_months",
          "type": "uint256"
        },
        {
          "internalType": "address",
          "name": "creator",
          "type": "address"
        }
      ],
      "stateMutability": "nonpayable",
      "type": "constructor"
    },
    {
      "inputs": [],
      "name": "collected",
      "outputs": [
        {
          "internalType": "uint256",
          "name": "",
          "type": "uint256"
        }
      ],
      "stateMutability": "view",
      "type": "function"
    },
    {
      "inputs": [],
      "name": "contribute",
      "outputs": [],
      "stateMutability": "payable",
      "type": "function"
    },
    {
      "inputs": [
        {
          "internalType": "uint256",
          "name": "",
          "type": "uint256"
        }
      ],
      "name": "contributorId",
      "outputs": [
        {
          "internalType": "address",
          "name": "",
          "type": "address"
        }
      ],
      "stateMutability": "view",
      "type": "function"
    },
    {
      "inputs": [
        {
          "internalType": "address",
          "name": "",
          "type": "address"
        }
      ],
      "name": "contributorOwed",
      "outputs": [
        {
          "internalType": "uint256",
          "name": "",
          "type": "uint256"
        }
      ],
      "stateMutability": "view",
      "type": "function"
    },
    {
      "inputs": [],
      "name": "contributors",
      "outputs": [
        {
          "internalType": "uint256",
          "name": "",
          "type": "uint256"
        }
      ],
      "stateMutability": "view",
      "type": "function"
    },
    {
      "inputs": [],
      "name": "debt",
      "outputs": [
        {
          "internalType": "uint256",
          "name": "",
          "type": "uint256"
        }
      ],
      "stateMutability": "view",
      "type": "function"
    },
    {
      "inputs": [],
      "name": "description",
      "outputs": [
        {
          "internalType": "string",
          "name": "",
          "type": "string"
        }
      ],
      "stateMutability": "view",
      "type": "function"
    },
    {
      "inputs": [],
      "name": "fundsWithdrawn",
      "outputs": [
        {
          "internalType": "bool",
          "name": "",
          "type": "bool"
        }
      ],
      "stateMutability": "view",
      "type": "function"
    },
    {
      "inputs": [],
      "name": "getDetails",
      "outputs": [
        {
          "internalType": "address",
          "name": "",
          "type": "address"
        },
        {
          "internalType": "string",
          "name": "",
          "type": "string"
        },
        {
          "internalType": "string",
          "name": "",
          "type": "string"
        },
        {
          "internalType": "string[]",
          "name": "",
          "type": "string[]"
        },
        {
          "internalType": "uint256",
          "name": "",
          "type": "uint256"
        },
        {
          "internalType": "uint256",
          "name": "",
          "type": "uint256"
        },
        {
          "internalType": "uint256",
          "name": "",
          "type": "uint256"
        },
        {
          "internalType": "uint256",
          "name": "",
          "type": "uint256"
        },
        {
          "internalType": "uint256",
          "name": "",
          "type": "uint256"
        },
        {
          "internalType": "uint256",
          "name": "",
          "type": "uint256"
        },
        {
          "internalType": "uint256",
          "name": "",
          "type": "uint256"
        },
        {
          "internalType": "bool",
          "name": "",
          "type": "bool"
        }
      ],
      "stateMutability": "view",
      "type": "function"
    },
    {
      "inputs": [
        {
          "internalType": "uint256",
          "name": "",
          "type": "uint256"
        }
      ],
      "name": "images",
      "outputs": [
        {
          "internalType": "string",
          "name": "",
          "type": "string"
        }
      ],
      "stateMutability": "view",
      "type": "function"
    },
    {
      "inputs": [],
      "name": "interest",
      "outputs": [
        {
          "internalType": "uint256",
          "name": "",
          "type": "uint256"
        }
      ],
      "stateMutability": "view",
      "type": "function"
    },
    {
      "inputs": [],
      "name": "manager",
      "outputs": [
        {
          "internalType": "address",
          "name": "",
          "type": "address"
        }
      ],
      "stateMutability": "view",
      "type": "function"
    },
    {
      "inputs": [],
      "name": "months",
      "outputs": [
        {
          "internalType": "uint256",
          "name": "",
          "type": "uint256"
        }
      ],
      "stateMutability": "view",
      "type": "function"
    },
    {
      "inputs": [
        {
          "internalType": "address",
          "name": "wallet",
          "type": "address"
        }
      ],
      "name": "repay",
      "outputs": [],
      "stateMutability": "payable",
      "type": "function"
    },
    {
      "inputs": [],
      "name": "repayed",
      "outputs": [
        {
          "internalType": "uint256",
          "name": "",
          "type": "uint256"
        }
      ],
      "stateMutability": "view",
      "type": "function"
    },
    {
      "inputs": [],
      "name": "target",
      "outputs": [
        {
          "internalType": "uint256",
          "name": "",
          "type": "uint256"
        }
      ],
      "stateMutability": "view",
      "type": "function"
    },
    {
      "inputs": [],
      "name": "title",
      "outputs": [
        {
          "internalType": "string",
          "name": "",
          "type": "string"
        }
      ],
      "stateMutability": "view",
      "type": "function"
    },
    {
      "inputs": [],
      "name": "withdraw",
      "outputs": [],
      "stateMutability": "payable",
      "type": "function"
    }
  ],
  "bytecode": "0x60806040523480156200001157600080fd5b50604051620018e6380380620018e68339818101604052810190620000379190620003eb565b85600481905550866009908051906020019062000056929190620000eb565b508460088190555083600a908051906020019062000076929190620000eb565b5081600b8190555082600c9080519060200190620000969291906200017c565b50806000806101000a81548173ffffffffffffffffffffffffffffffffffffffff021916908373ffffffffffffffffffffffffffffffffffffffff160217905550856007819055505050505050505062000725565b828054620000f990620005fd565b90600052602060002090601f0160209004810192826200011d576000855562000169565b82601f106200013857805160ff191683800117855562000169565b8280016001018555821562000169579182015b82811115620001685782518255916020019190600101906200014b565b5b509050620001789190620001e3565b5090565b828054828255906000526020600020908101928215620001d0579160200282015b82811115620001cf578251829080519060200190620001be929190620000eb565b50916020019190600101906200019d565b5b509050620001df919062000202565b5090565b5b80821115620001fe576000816000905550600101620001e4565b5090565b5b808211156200022657600081816200021c91906200022a565b5060010162000203565b5090565b5080546200023890620005fd565b6000825580601f106200024c57506200026d565b601f0160209004906000526020600020908101906200026c9190620001e3565b5b50565b600062000287620002818462000524565b620004fb565b90508083825260208201905082856020860282011115620002ad57620002ac620006cc565b5b60005b858110156200030257815167ffffffffffffffff811115620002d757620002d6620006c7565b5b808601620002e68982620003a1565b85526020850194506020840193505050600181019050620002b0565b5050509392505050565b6000620003236200031d8462000553565b620004fb565b905082815260208101848484011115620003425762000341620006d1565b5b6200034f848285620005c7565b509392505050565b6000815190506200036881620006f1565b92915050565b600082601f830112620003865762000385620006c7565b5b81516200039884826020860162000270565b91505092915050565b600082601f830112620003b957620003b8620006c7565b5b8151620003cb8482602086016200030c565b91505092915050565b600081519050620003e5816200070b565b92915050565b600080600080600080600060e0888a0312156200040d576200040c620006db565b5b600088015167ffffffffffffffff8111156200042e576200042d620006d6565b5b6200043c8a828b01620003a1565b97505060206200044f8a828b01620003d4565b9650506040620004628a828b01620003d4565b955050606088015167ffffffffffffffff811115620004865762000485620006d6565b5b620004948a828b01620003a1565b945050608088015167ffffffffffffffff811115620004b857620004b7620006d6565b5b620004c68a828b016200036e565b93505060a0620004d98a828b01620003d4565b92505060c0620004ec8a828b0162000357565b91505092959891949750929550565b6000620005076200051a565b905062000515828262000633565b919050565b6000604051905090565b600067ffffffffffffffff82111562000542576200054162000698565b5b602082029050602081019050919050565b600067ffffffffffffffff82111562000571576200057062000698565b5b6200057c82620006e0565b9050602081019050919050565b600062000596826200059d565b9050919050565b600073ffffffffffffffffffffffffffffffffffffffff82169050919050565b6000819050919050565b60005b83811015620005e7578082015181840152602081019050620005ca565b83811115620005f7576000848401525b50505050565b600060028204905060018216806200061657607f821691505b602082108114156200062d576200062c62000669565b5b50919050565b6200063e82620006e0565b810181811067ffffffffffffffff8211171562000660576200065f62000698565b5b80604052505050565b7f4e487b7100000000000000000000000000000000000000000000000000000000600052602260045260246000fd5b7f4e487b7100000000000000000000000000000000000000000000000000000000600052604160045260246000fd5b600080fd5b600080fd5b600080fd5b600080fd5b600080fd5b6000601f19601f8301169050919050565b620006fc8162000589565b81146200070857600080fd5b50565b6200071681620005bd565b81146200072257600080fd5b50565b6111b180620007356000396000f3fe6080604052600436106101095760003560e01c806384bcefd411610095578063aeef8f3611610064578063aeef8f3614610343578063c392f7661461036e578063d4b8399214610399578063d7bb99ba146103c4578063fbbf93a0146103ce57610109565b806384bcefd4146102a65780638d0f3e21146102d15780639f7c73e9146102fc578063ac307fcf1461031857610109565b80634a79d50c116100dc5780634a79d50c146101ab57806357e2a5c4146101d65780636e7e3b2b146102135780637284e4161461023e578063848564821461026957610109565b80630dca59c11461010e57806330a9ea56146101395780633ccfd60b14610176578063481c6a7514610180575b600080fd5b34801561011a57600080fd5b50610123610404565b6040516101309190610ed8565b60405180910390f35b34801561014557600080fd5b50610160600480360381019061015b9190610c5c565b61040a565b60405161016d9190610db1565b60405180910390f35b61017e61043d565b005b34801561018c57600080fd5b5061019561052b565b6040516101a29190610db1565b60405180910390f35b3480156101b757600080fd5b506101c061054f565b6040516101cd9190610eb6565b60405180910390f35b3480156101e257600080fd5b506101fd60048036038101906101f89190610c2f565b6105dd565b60405161020a9190610ed8565b60405180910390f35b34801561021f57600080fd5b506102286105f5565b6040516102359190610ed8565b60405180910390f35b34801561024a57600080fd5b506102536105fb565b6040516102609190610eb6565b60405180910390f35b34801561027557600080fd5b50610290600480360381019061028b9190610c5c565b610689565b60405161029d9190610eb6565b60405180910390f35b3480156102b257600080fd5b506102bb610735565b6040516102c89190610ed8565b60405180910390f35b3480156102dd57600080fd5b506102e661073b565b6040516102f39190610ed8565b60405180910390f35b61031660048036038101906103119190610c2f565b610741565b005b34801561032457600080fd5b5061032d610842565b60405161033a9190610e9b565b60405180910390f35b34801561034f57600080fd5b50610358610855565b6040516103659190610ed8565b60405180910390f35b34801561037a57600080fd5b5061038361085b565b6040516103909190610ed8565b60405180910390f35b3480156103a557600080fd5b506103ae610861565b6040516103bb9190610ed8565b60405180910390f35b6103cc610867565b005b3480156103da57600080fd5b506103e3610995565b6040516103fb9c9b9a99989796959493929190610dcc565b60405180910390f35b60075481565b60036020528060005260406000206000915054906101000a900473ffffffffffffffffffffffffffffffffffffffff1681565b60008054906101000a900473ffffffffffffffffffffffffffffffffffffffff1673ffffffffffffffffffffffffffffffffffffffff163373ffffffffffffffffffffffffffffffffffffffff161461049557600080fd5b600454600554146104a557600080fd5b60008054906101000a900473ffffffffffffffffffffffffffffffffffffffff1673ffffffffffffffffffffffffffffffffffffffff166108fc6004549081150290604051600060405180830381858888f1935050505015801561050d573d6000803e3d6000fd5b506001600d60006101000a81548160ff021916908315150217905550565b60008054906101000a900473ffffffffffffffffffffffffffffffffffffffff1681565b6009805461055c9061105e565b80601f01602080910402602001604051908101604052809291908181526020018280546105889061105e565b80156105d55780601f106105aa576101008083540402835291602001916105d5565b820191906000526020600020905b8154815290600101906020018083116105b857829003601f168201915b505050505081565b60026020528060005260406000206000915090505481565b60015481565b600a80546106089061105e565b80601f01602080910402602001604051908101604052809291908181526020018280546106349061105e565b80156106815780601f1061065657610100808354040283529160200191610681565b820191906000526020600020905b81548152906001019060200180831161066457829003601f168201915b505050505081565b600c818154811061069957600080fd5b9060005260206000200160009150905080546106b49061105e565b80601f01602080910402602001604051908101604052809291908181526020018280546106e09061105e565b801561072d5780601f106107025761010080835404028352916020019161072d565b820191906000526020600020905b81548152906001019060200180831161071057829003601f168201915b505050505081565b60055481565b60065481565b60008054906101000a900473ffffffffffffffffffffffffffffffffffffffff1673ffffffffffffffffffffffffffffffffffffffff163373ffffffffffffffffffffffffffffffffffffffff161461079957600080fd5b600260008273ffffffffffffffffffffffffffffffffffffffff1673ffffffffffffffffffffffffffffffffffffffff1681526020019081526020016000205434146107e457600080fd5b8073ffffffffffffffffffffffffffffffffffffffff166108fc349081150290604051600060405180830381858888f1935050505015801561082a573d6000803e3d6000fd5b50346006546108399190610f59565b60068190555050565b600d60009054906101000a900460ff1681565b600b5481565b60085481565b60045481565b6005546004546108779190610faf565b34111561088357600080fd5b6000600260003373ffffffffffffffffffffffffffffffffffffffff1673ffffffffffffffffffffffffffffffffffffffff16815260200190815260200160002054146108cf57600080fd5b34600260003373ffffffffffffffffffffffffffffffffffffffff1673ffffffffffffffffffffffffffffffffffffffff16815260200190815260200160002081905550346005546109219190610f59565b6005819055506001600081548092919061093a90611090565b91905055503360036000600154815260200190815260200160002060006101000a81548173ffffffffffffffffffffffffffffffffffffffff021916908373ffffffffffffffffffffffffffffffffffffffff160217905550565b6000606080606060008060008060008060008060008054906101000a900473ffffffffffffffffffffffffffffffffffffffff166009600a600c600b54600154600454600554600654600754600854600d60009054906101000a900460ff168a8054610a009061105e565b80601f0160208091040260200160405190810160405280929190818152602001828054610a2c9061105e565b8015610a795780601f10610a4e57610100808354040283529160200191610a79565b820191906000526020600020905b815481529060010190602001808311610a5c57829003601f168201915b50505050509a50898054610a8c9061105e565b80601f0160208091040260200160405190810160405280929190818152602001828054610ab89061105e565b8015610b055780601f10610ada57610100808354040283529160200191610b05565b820191906000526020600020905b815481529060010190602001808311610ae857829003601f168201915b5050505050995088805480602002602001604051908101604052809291908181526020016000905b82821015610bd9578382906000526020600020018054610b4c9061105e565b80601f0160208091040260200160405190810160405280929190818152602001828054610b789061105e565b8015610bc55780601f10610b9a57610100808354040283529160200191610bc5565b820191906000526020600020905b815481529060010190602001808311610ba857829003601f168201915b505050505081526020019060010190610b2d565b5050505098509b509b509b509b509b509b509b509b509b509b509b509b50909192939495969798999a9b565b600081359050610c148161114d565b92915050565b600081359050610c2981611164565b92915050565b600060208284031215610c4557610c44611137565b5b6000610c5384828501610c05565b91505092915050565b600060208284031215610c7257610c71611137565b5b6000610c8084828501610c1a565b91505092915050565b6000610c958383610d30565b905092915050565b610ca681610fe3565b82525050565b6000610cb782610f03565b610cc18185610f26565b935083602082028501610cd385610ef3565b8060005b85811015610d0f5784840389528151610cf08582610c89565b9450610cfb83610f19565b925060208a01995050600181019050610cd7565b50829750879550505050505092915050565b610d2a81610ff5565b82525050565b6000610d3b82610f0e565b610d458185610f37565b9350610d5581856020860161102b565b610d5e8161113c565b840191505092915050565b6000610d7482610f0e565b610d7e8185610f48565b9350610d8e81856020860161102b565b610d978161113c565b840191505092915050565b610dab81611021565b82525050565b6000602082019050610dc66000830184610c9d565b92915050565b600061018082019050610de2600083018f610c9d565b8181036020830152610df4818e610d69565b90508181036040830152610e08818d610d69565b90508181036060830152610e1c818c610cac565b9050610e2b608083018b610da2565b610e3860a083018a610da2565b610e4560c0830189610da2565b610e5260e0830188610da2565b610e60610100830187610da2565b610e6e610120830186610da2565b610e7c610140830185610da2565b610e8a610160830184610d21565b9d9c50505050505050505050505050565b6000602082019050610eb06000830184610d21565b92915050565b60006020820190508181036000830152610ed08184610d69565b905092915050565b6000602082019050610eed6000830184610da2565b92915050565b6000819050602082019050919050565b600081519050919050565b600081519050919050565b6000602082019050919050565b600082825260208201905092915050565b600082825260208201905092915050565b600082825260208201905092915050565b6000610f6482611021565b9150610f6f83611021565b9250827fffffffffffffffffffffffffffffffffffffffffffffffffffffffffffffffff03821115610fa457610fa36110d9565b5b828201905092915050565b6000610fba82611021565b9150610fc583611021565b925082821015610fd857610fd76110d9565b5b828203905092915050565b6000610fee82611001565b9050919050565b60008115159050919050565b600073ffffffffffffffffffffffffffffffffffffffff82169050919050565b6000819050919050565b60005b8381101561104957808201518184015260208101905061102e565b83811115611058576000848401525b50505050565b6000600282049050600182168061107657607f821691505b6020821081141561108a57611089611108565b5b50919050565b600061109b82611021565b91507fffffffffffffffffffffffffffffffffffffffffffffffffffffffffffffffff8214156110ce576110cd6110d9565b5b600182019050919050565b7f4e487b7100000000000000000000000000000000000000000000000000000000600052601160045260246000fd5b7f4e487b7100000000000000000000000000000000000000000000000000000000600052602260045260246000fd5b600080fd5b6000601f19601f8301169050919050565b61115681610fe3565b811461116157600080fd5b50565b61116d81611021565b811461117857600080fd5b5056fea264697066735822122028e1a8975fa1e908aef95ac08e584273ac89f1f7fdf4c7019c4e1975d194ffe664736f6c63430008070033",
  "linkReferences": {},
  "deployedLinkReferences": {}
}